{
  "contractName": "BlackBlock",
  "abi": [
    {
      "constant": true,
      "inputs": [
        {
          "name": "",
          "type": "uint256"
        }
      ],
      "name": "listToOwner",
      "outputs": [
        {
          "name": "",
          "type": "address"
        }
      ],
      "payable": false,
      "stateMutability": "view",
      "type": "function"
    },
    {
      "constant": true,
      "inputs": [
        {
          "name": "",
          "type": "uint256"
        }
      ],
      "name": "lists",
      "outputs": [
        {
          "name": "listHash",
          "type": "string"
        },
        {
          "name": "searchKey",
          "type": "string"
        }
      ],
      "payable": false,
      "stateMutability": "view",
      "type": "function"
    },
    {
      "constant": false,
      "inputs": [
        {
          "name": "_listHash",
          "type": "string"
        },
        {
          "name": "_searchKey",
          "type": "string"
        }
      ],
      "name": "newList",
      "outputs": [],
      "payable": false,
      "stateMutability": "nonpayable",
      "type": "function"
    },
    {
      "constant": true,
      "inputs": [
        {
          "name": "_searchKey",
          "type": "string"
        }
      ],
      "name": "getListFromSearchKey",
      "outputs": [
        {
          "name": "",
          "type": "string"
        }
      ],
      "payable": false,
      "stateMutability": "view",
      "type": "function"
    },
    {
      "constant": true,
      "inputs": [
        {
          "name": "_owner",
          "type": "address"
        }
      ],
      "name": "getListsFromOwner",
      "outputs": [
        {
          "name": "",
          "type": "uint256[]"
        }
      ],
      "payable": false,
      "stateMutability": "view",
      "type": "function"
    }
  ],
  "bytecode": "0x608060405234801561001057600080fd5b50610a8f806100206000396000f30060806040526004361061006d576000357c0100000000000000000000000000000000000000000000000000000000900463ffffffff1680632717a4de1461007257806338c5d72c146100df5780637fba4315146101c157806396102cf414610259578063d9fe034c1461036b575b600080fd5b34801561007e57600080fd5b5061009d6004803603810190808035906020019092919050505061041a565b604051808273ffffffffffffffffffffffffffffffffffffffff1673ffffffffffffffffffffffffffffffffffffffff16815260200191505060405180910390f35b3480156100eb57600080fd5b50610146600480360381019080803590602001908201803590602001908080601f016020809104026020016040519081016040528093929190818152602001838380828437820191505050505050919291929050505061044d565b6040518080602001828103825283818151815260200191508051906020019080838360005b8381101561018657808201518184015260208101905061016b565b50505050905090810190601f1680156101b35780820380516001836020036101000a031916815260200191505b509250505060405180910390f35b3480156101cd57600080fd5b50610202600480360381019080803573ffffffffffffffffffffffffffffffffffffffff16906020019092919050505061055a565b6040518080602001828103825283818151815260200191508051906020019060200280838360005b8381101561024557808201518184015260208101905061022a565b505050509050019250505060405180910390f35b34801561026557600080fd5b50610284600480360381019080803590602001909291905050506105f1565b604051808060200180602001838103835285818151815260200191508051906020019080838360005b838110156102c85780820151818401526020810190506102ad565b50505050905090810190601f1680156102f55780820380516001836020036101000a031916815260200191505b50838103825284818151815260200191508051906020019080838360005b8381101561032e578082015181840152602081019050610313565b50505050905090810190601f16801561035b5780820380516001836020036101000a031916815260200191505b5094505050505060405180910390f35b34801561037757600080fd5b50610418600480360381019080803590602001908201803590602001908080601f0160208091040260200160405190810160405280939291908181526020018383808284378201915050505050509192919290803590602001908201803590602001908080601f0160208091040260200160405190810160405280939291908181526020018383808284378201915050505050509192919290505050610754565b005b60006020528060005260406000206000915054906101000a900473ffffffffffffffffffffffffffffffffffffffff1681565b60606002826040518082805190602001908083835b6020831015156104875780518252602082019150602081019050602083039250610462565b6001836020036101000a03801982511681845116808217855250505050505090500191505090815260200160405180910390208054600181600116156101000203166002900480601f01602080910402602001604051908101604052809291908181526020018280546001816001161561010002031660029004801561054e5780601f106105235761010080835404028352916020019161054e565b820191906000526020600020905b81548152906001019060200180831161053157829003601f168201915b50505050509050919050565b6060600160008373ffffffffffffffffffffffffffffffffffffffff1673ffffffffffffffffffffffffffffffffffffffff1681526020019081526020016000208054806020026020016040519081016040528092919081815260200182805480156105e557602002820191906000526020600020905b8154815260200190600101908083116105d1575b50505050509050919050565b60038181548110151561060057fe5b9060005260206000209060020201600091509050806000018054600181600116156101000203166002900480601f0160208091040260200160405190810160405280929190818152602001828054600181600116156101000203166002900480156106ac5780601f10610681576101008083540402835291602001916106ac565b820191906000526020600020905b81548152906001019060200180831161068f57829003601f168201915b505050505090806001018054600181600116156101000203166002900480601f01602080910402602001604051908101604052809291908181526020018280546001816001161561010002031660029004801561074a5780601f1061071f5761010080835404028352916020019161074a565b820191906000526020600020905b81548152906001019060200180831161072d57829003601f168201915b5050505050905082565b61075c610924565b6000604080519081016040528085815260200184815250915060016003839080600181540180825580915050906001820390600052602060002090600202016000909192909190915060008201518160000190805190602001906107c192919061093e565b5060208201518160010190805190602001906107de92919061093e565b5050500390503360008083815260200190815260200160002060006101000a81548173ffffffffffffffffffffffffffffffffffffffff021916908373ffffffffffffffffffffffffffffffffffffffff160217905550600160003373ffffffffffffffffffffffffffffffffffffffff1673ffffffffffffffffffffffffffffffffffffffff168152602001908152602001600020819080600181540180825580915050906001820390600052602060002001600090919290919091505550836002846040518082805190602001908083835b6020831015156108d757805182526020820191506020810190506020830392506108b2565b6001836020036101000a0380198251168184511680821785525050505050509050019150509081526020016040518091039020908051906020019061091d9291906109be565b5050505050565b604080519081016040528060608152602001606081525090565b828054600181600116156101000203166002900490600052602060002090601f016020900481019282601f1061097f57805160ff19168380011785556109ad565b828001600101855582156109ad579182015b828111156109ac578251825591602001919060010190610991565b5b5090506109ba9190610a3e565b5090565b828054600181600116156101000203166002900490600052602060002090601f016020900481019282601f106109ff57805160ff1916838001178555610a2d565b82800160010185558215610a2d579182015b82811115610a2c578251825591602001919060010190610a11565b5b509050610a3a9190610a3e565b5090565b610a6091905b80821115610a5c576000816000905550600101610a44565b5090565b905600a165627a7a7230582089feabe269efbabec1b82b987aed6d7ed23296bc55701dcb14d7462f7ea6469a0029",
  "source": "pragma solidity ^0.4.22;\n\ncontract BlackBlock {\n\n  struct List {\n    string listHash;\n    string searchKey;\n  }\n\n  mapping (uint => address) public listToOwner;\n  mapping (address => uint[]) listsFromOwner;\n  mapping (string => string) searchKeyToHash;\n\n  List[] public lists;\n\n  function newList(string _listHash, string _searchKey) public {\n    List memory list = List(_listHash, _searchKey);\n    uint listId = lists.push(list) - 1;\n    listToOwner[listId] = msg.sender;\n    listsFromOwner[msg.sender].push(listId);\n    searchKeyToHash[_searchKey] = _listHash;\n  }\n\n  function getListFromSearchKey(string _searchKey) public view returns (string) {\n    return searchKeyToHash[_searchKey];\n  }\n\n  function getListsFromOwner(address _owner) public view returns (uint[]) {\n    return listsFromOwner[_owner];\n  }\n\n}\n",
  "sourcePath": "/Users/yuuki/dApps/black-block/contracts/BlackBlock.sol",
  "compiler": {
    "name": "solc",
    "version": "0.4.24+commit.e67f0147.Emscripten.clang"
  },
  "schemaVersion": "2.0.1",
  "updatedAt": "2018-08-16T15:00:36.469Z"
}